:020000040800F2
:10000000201900209D010008A5010008A701000893
:1000100000000000000000000000000000000000E0
:10002000000000000000000000000000A90100081E
:100030000000000000000000AB01000835060008C9
:10004000AF010008AF010008AF010008AF010008D0
:10005000AF010008AF010008AF010008AF010008C0
:1000600000000000AF010008AF010008AF01000868
:10007000AF010008AF010008AF010008AF010008A0
:10008000AF010008AF010008AF010008AF01000890
:1000900000000000AF010008AF010008AF01000838
:1000A000AF010008AF010008AF0100080507000814
:1000B000AF010008AF0100080000000000000000D0
:1000C00000F002F800F03EF80CA030C80838241800
:1000D0002D18A246671EAB4654465D46AC4201D180
:1000E00000F030F87E460F3E0FCCB6460126334274
:1000F00000D0FB1AA246AB4633431847B435000084
:10010000D4350000103A02D378C878C1FAD8520723
:1001100001D330C830C101D504680C6070470000BD
:100120000023002400250026103A01D378C1FBD813
:10013000520700D330C100D50B6070471FB51FBDFB
:1001400010B510BD00F084F91146FFF7F7FF01F07C
:10015000C9FD00F09CF903B4FFF7F2FF03BC00F007
:10016000A3F9000070B505460C46164602E00FCC18
:100170000FC5103E102EFAD2082E02D303CC03C5B1
:10018000083E042E07D301CC01C5361F03E02178B9
:100190002970641C6D1C761EF9D270BD074880471B
:1001A00007480047FEE7FEE7FEE7FEE7FEE7FEE75B
:1001B00004480549054A064B70470000F50600084B
:1001C000C1000008600700202019002060090020FD
:1001D00060090020034610B50B439B070FD1042A8A
:1001E0000DD308C810C9121FA342F8D018BA21BAFB
:1001F000884201D9012010BD0020C04310BD002A53
:1002000003D0D30703D0521C07E0002010BD0378B1
:100210000C78401C491C1B1B07D103780C78401C30
:10022000491C1B1B01D1921EF1D1184610BDF8B517
:10023000042A2CD3830712D00B78491C0370401C6E
:10024000521E83070BD00B78491C0370401C521EB2
:10025000830704D00B78491C0370401C521E8B0787
:100260009B0F05D0C91ADF002023DE1B08C90AE056
:10027000FFF778FFF8BD1D4608C9FD401C46B44095
:100280002C4310C0121F042AF5D2F308C91A521EBB
:10029000F0D40B78491C0370401C521EEAD40B7832
:1002A000491C0370401C012AE4D409780170F8BD90
:1002B00001E004C0091F0429FBD28B0701D502808D
:1002C000801CC90700D00270704700290BD0C307FB
:1002D00002D00270401C491E022904D3830702D5B4
:1002E0000280801C891EE3E70022EEE70022DFE7A0
:1002F000002203098B422CD3030A8B4211D3002323
:100300009C464EE003460B433CD4002243088B42FC
:1003100031D303098B421CD3030A8B4201D3944689
:100320003FE0C3098B4201D3CB01C01A524183097C
:100330008B4201D38B01C01A524143098B4201D336
:100340004B01C01A524103098B4201D30B01C01A61
:100350005241C3088B4201D3CB00C01A52418308DB
:100360008B4201D38B00C01A524143088B4201D308
:100370004B00C01A5241411A00D201465241104668
:1003800070475DE0CA0F00D04942031000D34042DD
:10039000534000229C4603098B422DD3030A8B4213
:1003A00012D3FC22890112BA030A8B420CD38901B1
:1003B00092118B4208D3890192118B4204D3890197
:1003C0003AD0921100E08909C3098B4201D3CB01D5
:1003D000C01A524183098B4201D38B01C01A52418A
:1003E00043098B4201D34B01C01A524103098B428E
:1003F00001D30B01C01A5241C3088B4201D3CB0079
:10040000C01A524183088B4201D38B00C01A52415B
:10041000D9D243088B4201D34B00C01A5241411A32
:1004200000D20146634652415B10104601D3404260
:10043000002B00D54942704763465B1000D3404211
:1004400001B50020C046C04602BD704770477047E6
:10045000754600F025F8AE46050069465346C008CB
:10046000C000854618B020B5FFF7A2FE60BC00278B
:100470004908B6460026C0C5C0C5C0C5C0C5C0C570
:10048000C0C5C0C5C0C5403D49008D46704710B5C8
:100490000446C046C0462046FFF75DFE10BD000082
:1004A00000487047FC06002001491820ABBEFEE75B
:1004B00026000200704710B50022835C8C5C63400C
:1004C0008354521CD2B2102AF7D310BDF8B5074698
:1004D00013493846FFF7EFFF384600F08BF83846EF
:1004E00000F09CF800240E4DA03D0926301B0001B1
:1004F00041193846FFF7DFFF384600F01FF838464D
:1005000000F078F8384600F089F8641CE4B2092C51
:10051000ECD303493846A039FFF7CDFFF8BD000002
:10052000F400002010B501461022034801F04CFCF5
:1005300000F0FEFE10BD000054000020F1B584B0B4
:1005400010226846049901F03FFC0022254C6B46BE
:1005500091005D5C2448254E455DC818C778F65D5E
:1005600087787540224EF65D4778E75D7E4075409E
:10057000049E755446781C4D5F5CAD5D1B4EF65D68
:10058000C77875401A4EF65D8778E75D7E40754006
:10059000049E8E19B44675708678134D4778AD5D0C
:1005A000124EF65D5F5C7540114EF65DC778E75DF3
:1005B0007E4075406646B570C6780B4D8778AD5D58
:1005C0000A4E595CF65D615C754046780848805D6E
:1005D000664648404540F570521CD2B2042AB7D353
:1005E00005B0F0BDB4300008B4320008B42F0008E4
:1005F000B43100081FB5044610222146684601F0B8
:10060000E3FB0022044B6846995C415CA154521CF8
:10061000D2B2102AF8D31FBDD43300080021044AF7
:10062000435CD35C4354491CC9B21029F8D37047CA
:10063000B42C000810B501F031FE10BD10B500F06B
:1006400009F801F053FD01F099FD01F025FD01F0DD
:1006500039FD10BD70B5234DA96838200140224AEC
:10066000224C082918D0500010291FD0182915D065
:10067000202917D0296889044A0F01219140FFF7EA
:1006800037FE2060A8683C21800908401849085CB2
:100690002168C140216070BD2260F3E77D20000227
:1006A0002060EFE70120C0032060EBE7E9688B07DB
:1006B0009B0FE9684906490F491C032B0DD0FFF732
:1006C00017FEE96849044A0E4243E868410F491C95
:1006D0001046FFF70DFE2060D4E71046FFF708FE36
:1006E000EFE700000010024000127A0050000020E6
:1006F0007036000801200249C0068860704700007B
:1007000000ED00E070B50D48046A0546203504E0B0
:10071000606AC1B2284600F08FFAE0694009C0075C
:10072000F6D120688009C00706D0E0698009C007BB
:1007300002D0284600F086FA70BD0000B802002002
:1007400030B47446641E2578641CAB4200D21D464A
:10075000635D5B00E31830BC1847F8B50A46042413
:100760000625045F455F0668002A05DB2146A818B8
:10077000FFF7C8FD705CF8BD0827C75F521C3946FB
:100780005042FFF7BFFD491C08B2E919081A21467B
:10079000FFF7B8FD08B2305CF8BD0160828000212F
:1007A000C180018170470089002801D00020704776
:1007B0000120704708210422415E825E914201DBE4
:1007C00001207047002070470821415E08467047AD
:1007D00010B508220423825EC35E9A420DDAC488F3
:1007E000A21812B2934201DCD21A12B203689954D1
:1007F0000189491C0181012010BD002010BD082184
:10080000415E002910D00622825E03689B5C491E6F
:100810000181521C11B2C1800422825E914201DB2F
:100820000021C18018467047002070470822825E70
:100830008A4200DA1146521A0281C288521812B254
:10084000C2800423C35E9A4201DBD21AC2800846EA
:1008500070470821415E00290BD0491E0181C188E3
:10086000491C09B2C1800422825E914201DB891ACF
:10087000C180704781880089081A00B27047000063
:10088000020A4A405100034A0002515A414088B2CC
:1008900070470000B425000800487047FFFF0000C3
:1008A000C2B24A409100024A000A5158484070477B
:1008B000B4270008C04370470020C04370470000C1
:1008C00072B602480178491C017070471000002080
:1008D00004480178491E01700078002800D162B6F2
:1008E000704700001000002010B508480021C184A6
:1008F0000170014614221031001DFFF74EFFFFF773
:10090000DBFF024940398866002010BD6C020020E0
:1009100010B50A4801F03CF800280DD008480078CE
:10092000002803D0074801F076FC02E0054801F0FA
:100930006BFC024800F0CEFE10BD0000200100203C
:100940002C0000209802002070B5164C164D20682F
:10095000286072B600201549086101201449C006BC
:100960000860BFF34F8FBFF36F8F1248026B0121F6
:1009700089030A430263026B8A4302630D484030D5
:1009800002688A430260002001F022FB0A480168E5
:10099000C908C9000160286880F30888606880473A
:1009A00070BD0000004000081400002000E000E0DE
:1009B00080E100E000100240002002400FB509492C
:1009C000CA6C896C039202910749CA69009209694D
:1009D0000191042802D3002004B000BD80006946C4
:1009E0000858F9E714360008300000200EB50A68F0
:1009F00002600A790271827952085200FD231A407E
:100A0000827100234371FB231A404B79DB075B0F94
:100A10001A438271F7231A404B799B07DB0FDB00E7
:100A20001A4382714979EF234907C90F1A40090116
:100A30000A43827109498A684968029201910090CB
:100A400081796A460907C90F11728079C006C00F03
:100A5000507203496846096888470EBD5023000854
:100A600000000020014908607047000000000020DD
:100A700070B50C46C508ED0000F08EF800F028F8BF
:100A800011484169114A11404161416901221143F4
:100A90000E4A921C114041610020E1780902A278BF
:100AA000511809026278511809022278241D511840
:100AB00002C5401CC0B20228EFD3022001F002FCA4
:100AC00000F06AF8012070BD00200240FDBF04372D
:100AD000074810210161202101614021016180212D
:100AE0000161811501614115016189010161704751
:100AF0000020024010B5044600F04EF8FFF7E8FF72
:100B000010494869104A104048614A690E4B02205A
:100B100002435B1C1A404A6148690C4A1040E200DB
:100B20001043184048614869012212041043084AE2
:100B300010404861012001F0C5FB00F02DF80120B4
:100B400010BD000000200240FEBF043707E0FFFF99
:100B5000FFBF053703480249816003498160704740
:100B60002301674500200240AB89EFCD074841696A
:100B7000074A114041614169521C1140416141697C
:100B800082041143034A1140416170470020024032
:100B9000FDBF0437FFBF04B7034800E000BF016991
:100BA000090CC907FAD1704700200240F7B584B09C
:100BB0000646144634E002A8019075076D0F002721
:100BC000F008C00000902A4600990198FFF72FFB1B
:100BD000019840190190082C06D26019082803D208
:100BE0000820001B401BC7B20820401BC5B2A5420D
:100BF00000D9E5B22A4605990198FFF718FB01983C
:100C00004019059949190591611B8CB275193A462D
:100C10002946FFF70CFBEE1902A90098FFF728FF01
:100C2000002CC8D1012007B0F0BD000001490860C8
:100C3000704700000400002010B51030FFF7C8FD19
:100C400010BD00001CB50446201DFFF7ACFD0028B8
:100C500009D00948406A01900094216A6846884793
:100C6000002020771CBD0448C06A01900094216ACE
:100C7000684688471CBD0000742300081CB5054A5F
:100C8000D269019200906A465171016A68468847AC
:100C90001CBD0000742300087CB504460D4628687E
:100CA000206068692062002020770822AA5E201D4B
:100CB0006968FFF772FD10222046AA5E1030E968CD
:100CC000FFF76BFD0348406801900094216A684675
:100CD00088477CBD7423000810B50446FFF7F0FD7B
:100CE000201DFFF7C7FD84B2FFF7F2FD204610BDBF
:100CF00010B50446FFF7E4FD20461030FFF753FD22
:100D00000446FFF7E5FD204610BD10B50446FFF789
:100D1000D7FD247FFFF7DCFD204610BD70B50546EA
:100D20000C46002C06D02846FFF7E2FF002803D02F
:100D3000002070BD002070BD1035FFF7C1FD2846B2
:100D4000FFF75DFD2070FFF7C3FD012070BD0000BF
:100D5000F7B584B00C4616460027002C13D0002EA1
:100D600011D00498001D0390FFF7AAFD0398FFF728
:100D700081FD85B2FFF7ACFDAE4200D9EEB2002E88
:100D800004D0002511E0002007B0F0BD0020FBE7F3
:100D9000FFF796FD21780398FFF71AFDFFF798FDFE
:100DA000641C7F1CFFB26D1CEDB2B542F0D30498F9
:100DB000FFF7ABFF00280BD104980121017705480C
:100DC000406B0290049801900498016A01A888473A
:100DD0003846D9E77423000830B5FE48426B01213C
:100DE0000A434263426B02231A434263426B042369
:100DF0001A434263426B08231A434263426B202327
:100E00001A434263F44802681468007945000320DD
:100E10000346AB409C431460F04C2268956A2479E9
:100E20000B46A3401D439562156864000346A3402A
:100E30009D430B46A3401D431560E94A1268956A1D
:100E4000E74B1C790B46A3401D439562156864006F
:100E50000346A3409D430B46A3401D431560E14A52
:100E600012681468DF4B1B795D000346AB409C435E
:100E70001460DD4A12681468DB4B1B795D00034681
:100E8000AB409C431460D94A14682568127953001A
:100E900002469A40954315432560D54A1268146866
:100EA000D34B1B795D000346AB409C431460D14A91
:100EB000146825681279530002469A4095431543F9
:100EC0002560CD4A12681468CB4B1B795D00034640
:100ED000AB409C431460C94A1468256812795300DA
:100EE00002469A40954315432560C54A1468256813
:100EF0001279530002469A40954315432560C14C30
:100F00002268156823795C000346A3409D43156061
:100F1000BD4C2268156823795C000346A3409D43BD
:100F20001560BA4A1268956AB84B1C790B46A34003
:100F30001D439562156864000346A3409D430B461C
:100F4000A3401D431560B24C2268956A24790B4674
:100F5000A3401D439562156864000346A3409D436A
:100F60000B46A3401D431560AA4C2268956A24795C
:100F70000B46A3401D439562156864000346A340D9
:100F80009D430B46A3401D431560A34C2268956A00
:100F900024790B46A3401D439562156864000346FF
:100FA000A3409D430B46A3401D4315609B4C226804
:100FB000956A24790B46A3401D4395621568640029
:100FC0000346A3409D430B46A3401D431560944C2C
:100FD0002268956A24790B46A3401D4395621568E3
:100FE00064000346A3409D430B46A3401D43156088
:100FF0008C4C2268956A24790B46A3401D43956268
:10100000156864000346A3409D430B46A3401D435F
:101010001560854C2268956A24790B46A3401D43D0
:10102000956215686400A0408543A1400D4315609A
:101030007E480268946A0179012003468B401C4374
:10104000946215684B0003210C469C40A543254340
:101050001560774D2A68946A2D790346AB401C438E
:10106000946214686D000B46AB409C430346AB4052
:101070001C4314606F4A14682568127953000A46AD
:101080009A409543154325606B4A126814686A4B71
:101090001B795D000B46AB409C431460674A1268A5
:1010A000956A664B1C790346A3401D4395621568FB
:1010B00064000B46A3409D430346A3401D431560B7
:1010C0005F4A126814685E4B1B795D000B46AB40AB
:1010D0009C4314605B4C2268956A24790346A340C4
:1010E0001D439562156864000B46A3409D4303466B
:1010F000A3401D431560544C2268956A2479034629
:10110000A3401D439562156864000B46A3409D43B0
:101110000346A3401D4315604C4C2268956A247910
:101120000346A3401D439562156864000B46A34027
:101130009D430346A3401D431560454C2268956AB4
:1011400024790346A3401D439562156864000B464D
:10115000A3409D430346A3401D4315603D4A1268CA
:10116000956A3C4B1C790346A3401D439562156864
:1011700064000B46A3409D431560374A1268956A88
:10118000354B1C790346A3401D43956215686400E6
:101190000B46A3409D431560304C2268956A247924
:1011A0000346A3401D439562156864000B46A340A7
:1011B0009D4315602A4C2268956A24790346A34012
:1011C0001D439562156864000B46A3409D4315605E
:1011D000244C49E000100240E4340008EC340008DC
:1011E0001C35000824350008E4330008EC330008FF
:1011F000F4330008FC3300081434000804340008F9
:101200001C340008543400085C34000864340008BE
:10121000A4340008AC340008B4340008BC3400081E
:10122000C4340008CC340008243400082C340008EE
:10123000DC340008343400083C340008443400082E
:101240004C340008FC340008043500080C35000854
:10125000143500086C340008743400087C3400082D
:10126000843400088C3400082268956A2479034687
:10127000A3401D439562156864000B46A3409D433F
:101280001560264C2268956A24790346A3401D43C5
:101290009562156863000C469C40A5432543156084
:1012A0001F4C2268956A24790346A3401D4395622A
:1012B000156864000B46A3409D430346A3401D43AD
:1012C0001560184C2268956A24790346A3401D4393
:1012D0009562156863000C469C40A5432543156044
:1012E000114C2268956A24790346A3401D439562F8
:1012F000156863000C469C40A543254315600B4CC4
:101300002268956A2479A0400543956210686300BD
:10131000994088430843106030BD000094340008B1
:101320009C340008F43400080C340008D43400085D
:10133000FEB501212A4E0D01A8190246203A537F1D
:10134000284F6C46FB5C23709C46947F6B463C5D4B
:101350005C70A646D47F3C5D9C700294127FBF5C9B
:10136000DF704A1E12010192B45C634663401E4C5A
:10137000645C634073559219537874465C404470C2
:101380009378029C5C408470D2785740C7700120EB
:10139000421E9200AB18019C114A8700E419A64630
:1013A000D65C145D6640EF19BC46D6559B18744652
:1013B000A4185E78677862447E4056709E78A7785D
:1013C0007E409670DB78E4786340D370401CC0B2F6
:1013D0000428DDD3491CC9B20B29ABD3FEBD0000E4
:1013E00054000020B42B0008B43300080121017020
:1013F0007047F0B500230168096802790324012AC7
:101400000FD0022A39D0032A02D001231846F0BD9A
:101410000A68126909798068CA40D107C90F01704A
:10142000F4E70A6815680E7927467600B740BD4391
:101430001560027A002A0AD00868C2680979490052
:101440008C40A24301248C402243C260DEE7407AF4
:1014500000280AD00868C268097949008C40A24374
:1014600002248C402243C260D0E70868C268097930
:1014700049008C40A243C260C8E70868C2680D7981
:1014800026466D00AE40B243C26008680268097922
:1014900049008C40A2430260B8E70000FEB5014657
:1014A00000200090086805680A790124402620275A
:1014B0001300FFF745F906FD25C4190410FD001DB2
:1014C000FFF79DF9A86228688009C00702D1286843
:1014D00030432860F6E0001DFFF765F90028F9D0D9
:1014E0002868B0432860EDE04879002803D02868D8
:1014F00020432860E6E02868400840002860E1E0DA
:10150000286840084000286028680121C9038843F2
:10151000286068680321090388436860A86801217E
:10152000C9028843A860286889040843286028689D
:10153000C9148843286028684910884328602868AF
:10154000C904884328602968012000038143296079
:10155000E1214902284600F007FCA868012109039F
:101560000843A8602E622868B04328602868384382
:10157000286028680821084328602968042001435E
:1015800029605148006881684F4A0326137937461D
:101590005A009740B9430197012797403943BE4607
:1015A00081604A4A11688F68147935466400A54005
:1015B000AC46AF430125A5402F438F60C468019F0F
:1015C000BC4377463C43C460CC686746BC432C436D
:1015D000CC601907C90F8900203144585B070F25DB
:1015E000DB0E2F469F40BC4301279F403C434450A5
:1015F000107913680107C90F890020315C58400732
:10160000C00E8540AC43012585402C435C502E48DC
:10161000006804682C493346097949008B409C4393
:1016200002231D468D402C43046010680468117924
:1016300049008E40B4438B401C43046042E028685C
:10164000B84328602868B0432860286840084000F4
:10165000286029680420814329602868082188437C
:101660002860194A1068C1681279032352001D4688
:1016700095400124A94394402143C160134A166850
:10168000F76811791C4649008C40A74301248C401F
:101690002743F7600168A943016010680168127967
:1016A00052009340994301600948026B012100E018
:1016B00006E089030A430263026B8A43026301E086
:1016C000012000900098FEBD2C340008343400083E
:1016D00000100240F0B587B00446A24BFF261D461D
:1016E000013620889E4A9F19FF354033811A4135C3
:1016F000069390427ED03CDC9B49401A0121002891
:101700003FD0102877D0122839D198A002468CCA31
:10171000C068049703930292059098480170E88C82
:10172000002869D00422E11C01A800F04DFB207ABA
:101730000002E179081885B2B54202D9022000F012
:101740002DFA8F49019840181721C902884202D307
:10175000052000F023FA01988A494019884202D9ED
:10176000062000F01BFA02A8FEF7DCFE00247D4FE5
:101770009FE0012972D00D2901D1FFF7E5F807B0EC
:10178000F0BDA0780528FAD17F4A76481379037115
:101790005379437193798371017400234374817485
:1017A00010680590042205A96E4800F00DFB012089
:1017B000C00205906B48042205A9143000F004FB18
:1017C00005966848042205A9183000F0FDFAE88C57
:1017D00005906448042205A91C3000F0F5FAB86EA3
:1017E000FFF768F805905F48042205A9203000F053
:1017F000EBFA02E07AE032E074E0E579082D00D9F6
:1018000008255948614E401C3080B5700422E11C07
:1018100004A800F0D9FA0498FF2807D92946F01C3B
:10182000FEF762FD304600F07DF9A8E72C4601196D
:10183000402902D94021091ACCB24A492246091846
:10184000F01C00F0C1FAAC4204D23019291BC01CB4
:10185000FEF74AFD4D4800F065F990E74FE0474834
:101860000170A078042803D0032000F097F986E7E0
:101870000422E11C05A800F0A7FA05984001040C19
:1018800020460838172803D3042000F087F976E7AC
:10189000FFF760F9E0B2FFF72DF9FFF767F90020D5
:1018A00000F07CF96BE738194030FEF70FFE10347A
:1018B000A4B2B442F7D3FFF74DF92A46069901982E
:1018C000FFF774F9FFF752F92A4601990698FEF7D7
:1018D00081FC002802D0072000F060F9002000F011
:1018E0005DF94CE7002000F059F948E70020E88452
:1018F000FEF7E2FFB866002000F050F93FE7A0785D
:1019000005900598002890D0E88CB04200D9EE846C
:10191000E98C701A80B2002887D0059A824201D9DA
:10192000C0B2059006980818049000260FE0A01990
:10193000C0780390B86E0399FEF7B2FFB8660499B9
:10194000039808700498401C0490761CF6B2059821
:101950008642ECD3E98C05980818E8840FE700006C
:10196000130700002C01002000070000D20FBA8CE2
:1019700061414FFBB40A68F44F287CC92C00002059
:1019800000C0FFF700F8000800F000081401002074
:10199000F1B584B000266048039060480290029838
:1019A000FEF712FFC4B2072C2BD201A90398FFF750
:1019B000B5F9002814D0684601790298FEF708FFAF
:1019C000641CE4B2022C19D300210298FEF7C5FE74
:1019D000AA2808D0641EE4B20298FEF710FF0DE0BA
:1019E000002005B0F0BD01210298FEF7B6FE552893
:1019F00004D0641EE4B20298FEF701FF072C1CD34A
:101A000011E00298FEF7D6FE00280CD101A9039838
:101A1000FFF784F9002806D0684601790298FEF79E
:101A2000D7FE641CE4B204210298FEF796FE054638
:101A3000082D03D90298FEF7E2FE66E0E81D844215
:101A400063D30298FEF7DBFEAA285ED1002102983C
:101A5000FEF783FE552858D10298FEF7FAFE0121C1
:101A60000298FEF77AFE040200210298FEF775FE46
:101A7000001980B20090002407E0E11C0298FEF7F4
:101A80006CFE27490855641CE4B2AC42F5D3FEF75E
:101A900003FFAA21FEF7F4FE5521FEF7F1FE00999F
:101AA000C9B2FEF7EDFE0099090AFEF7E9FE2946E4
:101AB000FEF7E6FE0746002407E01948015D3846B8
:101AC000FEF7DEFE0746641CE4B2AC42F5D3291DE6
:101AD0000298FEF742FE0402E91C0298FEF73DFE62
:101AE000001980B2874210D1691D0298FEF79EFE50
:101AF0000499009808800498857004982A4608493B
:101B0000C01C00F061F901206BE7761CF6B20A2ECA
:101B100000D244E7002064E7D802002070020020D1
:101B200018000020F8B505461A480746FFF7D4F814
:101B30000F2801D20020F8BDAC78082C00D9082469
:101B4000154EAA203070552070702878B070288803
:101B5000000AF07034712246E91C701D00F034F95F
:101B6000FEF79AFE641DE5B2002404E0315DFEF745
:101B700087FE641CE4B2AC42F8D37055000A7119B8
:101B80004870AD1CEAB204493846FFF7E1F801207D
:101B9000F8BD0000D80200200401002010B5034960
:101BA000C8700846FFF7BEFF10BD000020000020EF
:101BB000F0B5002401680968067903250122330085
:101BC000FEF7BEFD06762E6625041576007A0028FF
:101BD00006D00868836909798A401343836168E005
:101BE0000868836A09798A401343836261E0086860
:101BF00043690979CB40DB0704D0836A8A401343E9
:101C0000836256E083698A401343836151E00A6826
:101C1000126909798068CA40D107C90F017048E08C
:101C2000437A002B0DD00B68DE689C460B792F465B
:101C30005B009F40BE4317469F403E436346DE60C5
:101C400009E00B68DE689C460B795F002B46BB40C1
:101C50009E436346DE60007A002808D00B685E6809
:101C60000F791046B840864306435E6006E0086878
:101C700043680E791746B740BB4343600868036862
:101C8000097949008D40AB438A401343036010E05B
:101C9000086802680B792E465B009E40B2430260E2
:101CA0000868C268097949008D40AA43C26000E013
:101CB00001242046F0BD70B504460D460120207079
:101CC0006261A361201D00F0AFFA7D21C9002846A2
:101CD000FEF70EFBE060218221460C31201D00F052
:101CE000B1FA70BD00F000F800F07AF8642000F05E
:101CF000E9FA01260024164D286800692979C840B0
:101D0000C00701D0002606E00A2000F0DBFA641CC0
:101D1000E4B2052CF0D9002E06D10E48C06B0E4956
:101D2000884201D0FEF710FE00F064F80B490C4821
:101D300000F05EFA0B4CFEF7EBFD20780028FAD19C
:101D4000074800F047FA0028F5D0FEF7FDFDF2E75E
:101D5000E4330008C0FF0008DDCC341260EA000064
:101D6000980200202C00002030B591B004460D46AA
:101D70004022144901A8FEF7F5F9204600F078F951
:101D8000002819D0E16A01AA0907890E5158FEF707
:101D9000AFFA2168C90BC90710D040002946FEF7E9
:101DA000A7FA0107090F490800090001084380B29A
:101DB000E060012011B030BD0020FBE72946FEF7AE
:101DC00097FAF4E72C35000810B5002305E00C78ED
:101DD000491C0470401C5B1CDBB29342F7D310BD5E
:101DE00010B500F02BF800F077F800F0C1F862B6FB
:101DF000002010BD10B572B600200749086100F040
:101E00005BF800F00BF800F0B3F862B600F098F859
:101E100000F04EF8002010BD00E000E00548016829
:101E20000902090A016001200349C0060860002078
:101E30007047000018E400E000E100E01CB5144821
:101E4000FEF710FE1348FEF7F1FEFEF7C5FF12483D
:101E5000406801901148009069461148FEF7C6FDA0
:101E6000104800900E4869460830FEF7BFFD0E4846
:101E700000900B4869461030FEF7B8FD0B48009003
:101E8000074869461830FEF7B1FD00201CBD000070
:101E9000F3130008B11B00086C350008E434000897
:101EA000B8020020E4330008F43300087C34000852
:101EB00010B5FEF719FD10BD10B5002000F0B0F808
:101EC000002000F077F8002000F082F800F09EF883
:101ED000FEF7B4FB002010BD10B5174908680322B7
:101EE00052029043FF30FF30023008601349086807
:101EF00001231843086011484038C26B0404224390
:101F0000C263426B1A434263426B02231A43426329
:101F1000426B04231A434263426B08231A43426311
:101F2000426B20231A43426308685A021043086038
:101F3000FEF784FB002010BD0070004040100240FE
:101F400010B586B0182208496846FEF70BF9074815
:101F500069460446FEF7A0FE01212046FEF78EFEEC
:101F6000002006B010BD00007C350008D80200201B
:101F700010B500F079F900F061F87D21C900FEF795
:101F8000B7F90949401E88420CD8084948610848F9
:101F90000723C2691202120A4C042243C2610020C4
:101FA00088610B61002010BDFFFFFF0000E000E032
:101FB00004ED00E0054A916807231B03400799439D
:101FC000400C014391600120704700000010024066
:101FD0000C498A68D208520707D08A68D208D20012
:101FE0008A608A68D2085207FBD10A680723DB029D
:101FF00040079A43800C0243034802400A600120D4
:102000007047000000100240003B45010348416951
:1020100089088900891C41610120704740100240F5
:10202000054A91680F231B0200079943000D0143E5
:102030009160012070470000001002400148406993
:10204000704700003000002010B503484069800749
:10205000800FFEF7B3FC10BD4010024010B50348DE
:1020600040690007800FFEF7A9FC10BD4010024038
:1020700010B50749884202D1FFF7E6FF10BD0549B8
:10208000884202D1FFF7EAFF10BD002010BD00001A
:10209000003801400044004010B5074880680749F7
:1020A0000005000F8000064C09582069FEF720F952
:1020B0006061C008A06110BD00100240B435000886
:1020C0003000002010B50648806806494004400FE3
:1020D0008000054C09586069FEF70AF9E06110BDFF
:1020E00000100240F43500083000002070B50022D6
:1020F0001F4D28681F4C400EC0070AD0E8688007B3
:10210000800F022802D0032803D101E01A4A00E020
:102110002268E8684006410FE868491C4004400E08
:102120005043FEF7E5F80646E868000CC00707D004
:10213000E8688002C10E491C3046FEF7D9F860609D
:10214000E868000EC00707D0E8680001410F491C8D
:102150003046FEF7CDF8A060E868000FC00706D053
:10216000E868410F491C3046FEF7C2F8E06070BDD8
:1021700000100240300000200024F40070B5002060
:1021800010498A6801259206520FED030E4C130088
:10219000FEF7D6FA05040E101214150008680B4954
:1021A0008004400F800009580948FEF7A1F806E0B6
:1021B000206804E0E06802E0284600E0284620614C
:1021C00070BD00000010024030000020943500086F
:1021D0000024F40010B50446201D00F093F8207888
:1021E000002803D000202070012010BD002010BD69
:1021F00010B5002202700346024A001D00F06FF87D
:1022000010BD0000ED13000810B500210170001D85
:1022100000F06BF810BD10B50446201D00F094F8D6
:102220000020207010BD000010B50446FEF748FBEA
:102230000348016821608088A080FEF749FB10BD3B
:102240000800002070B5044620680A6885182560DB
:10225000A0888988401880B27D21C900FEF748F81F
:1022600040192060A18070BD02480021818001607A
:10227000012070470800002002680B689A4201D9CB
:10228000012070479A4201D20020704780888988D7
:10229000884201D301207047002070470848818898
:1022A000491C81807D21C90005E00268521C026042
:1022B0008288521A828082888A42F6D27047000051
:1022C0000800002000B589B0014601A8FFF790FF83
:1022D00001A8FFF77FFF0028FAD009B000BD10B5B4
:1022E00000244470FFF7E7FC10BD10B50446012040
:1022F0002070201DFFF798FF21460C31201DFFF7AD
:10230000A1FF10BD1CB50446207800281BD06846EC
:10231000FFF78AFF6946201DFFF7AEFF002812D1A4
:102320006078002808D0201DFFF77EFF21460C3181
:10233000201DFFF787FF01E0002020706169002960
:1023400001D0A06988471CBD0021017070470000C2
:10235000000000000100000000000000000000007C
:102360000200000000000000000000000300000068
:10237000000000000000000001000000000000005C
:10238000020000000000000001000000000000004A
:102390000300000000000000050000000000000035
:1023A0000400000000000000040000000000000025
:1023B000040000000000891112239B322446AD570F
:1023C0003665BF74488CC19D5AAFD3BE6CCAE5DB7D
:1023D0007EE9F7F88110080193331A22A5562C479D
:1023E000B7753E64C99C408DDBBF52AEEDDA64CB5D
:1023F000FFF976E802218B30100299132667AF7639
:102400003444BD554AADC3BC588ED19F6EEBE7FA3C
:102410007CC8F5D983310A2091121803A7772E665C
:10242000B5543C45CBBD42ACD99E508FEFFB66EA1C
:10243000FDD874C904428D5316619F702004A915FC
:102440003227BB364CCEC5DF5EEDD7FC6888E199FC
:102450007AABF3BA85520C4397711E60A11428051C
:10246000B3373A26CDDE44CFDFFD56ECE9986089DC
:10247000FBBB72AA06638F7214409D512225AB34B8
:102480003006B9174EEFC7FE5CCCD5DD6AA9E3B8BC
:10249000788AF19B87730E6295501C41A3352A24DC
:1024A000B1163807CFFF46EEDDDC54CDEBB962A89C
:1024B000F99A708B088481951AA793B62CC2A5D37C
:1024C0003EE1B7F04008C919522BDB3A644EED5F8C
:1024D000766DFF7C899400859BB712A6ADD224C38C
:1024E000BFF136E0C1184809D33B5A2AE55E6C4F6C
:1024F000F77D7E6C0AA583B4188691972EE3A7F228
:102500003CC0B5D14229CB38500AD91B666FEF7E4B
:10251000744CFD5D8BB502A499961087AFF326E24B
:10252000BDD034C1C3394A28D11A580BE77F6E6E2B
:10253000F55C7C4D0CC685D71EE597F42880A191EB
:102540003AA3B3B2444ACD5B5669DF78600CE91D0B
:10255000722FFB3E8DD604C79FF516E4A99020810B
:10256000BBB332A2C55A4C4BD7795E68E11C680DEB
:10257000F33F7A2E0EE787F61CC495D52AA1A3B0A7
:102580003882B193466BCF7A5448DD59622DEB3CCB
:10259000700EF91F8FF706E69DD414C5ABB122A0CB
:1025A000B9923083C77B4E6AD5585C49E33D6A2CAB
:1025B000F11E780F00002110422063308440A550A6
:1025C000C660E770088129914AA16BB18CC1ADD179
:1025D000CEE1EFF13112100273325222B552944221
:1025E000F772D662399318837BB35AA3BDD39CC3C9
:1025F000FFF3DEE36224433420040114E664C7746D
:10260000A44485546AA54BB528850995EEE5CFF518
:10261000ACC58DD55336722611163006D776F666C0
:102620009556B4465BB77AA719973887DFF7FEE768
:102630009DD7BCC7C448E5588668A778400861188C
:1026400002282338CCC9EDD98EE9AFF948896999B8
:102650000AA92BB9F55AD44AB77A966A711A500A60
:10266000333A122AFDDBDCCBBFFB9EEB799B588B08
:102670003BBB1AABA66C877CE44CC55C222C033CAC
:10268000600C411CAEED8FFDECCDCDDD2AAD0BBD58
:10269000688D499D977EB66ED55EF44E133E322E00
:1026A000511E700E9FFFBEEFDDDFFCCF1BBF3AAFA8
:1026B000599F788F8891A981CAB1EBA10CD12DC106
:1026C0004EF16FE18010A100C230E320045025409C
:1026D00046706760B9839893FBA3DAB33DC31CD3FC
:1026E0007FE35EF3B1029012F322D23235421452EC
:1026F00077625672EAB5CBA5A89589856EF54FE548
:102700002CD50DC5E234C324A0148104667447643B
:1027100024540544DBA7FAB79987B8975FE77EF79B
:102720001DC73CD7D326F2369106B016576676768B
:10273000154634564CD96DC90EF92FE9C899E98967
:102740008AB9ABA94458654806782768C018E108DB
:102750008238A3287DCB5CDB3FEB1EFBF98BD89B3B
:10276000BBAB9ABB754A545A376A167AF10AD01A2B
:10277000B32A923A2EFD0FED6CDD4DCDAABD8BAD87
:10278000E89DC98D267C076C645C454CA23C832C7B
:10279000E01CC10C1FEF3EFF5DCF7CDF9BAFBABFDB
:1027A000D98FF89F176E367E554E745E932EB23ECB
:1027B000D10EF01E00000000963007772C610EEE5F
:1027C000BA51099919C46D078FF46A7035A563E988
:1027D000A395649E3288DB0EA4B8DC791EE9D5E0AF
:1027E00088D9D2972B4CB609BD7CB17E072DB8E7AE
:1027F000911DBF906410B71DF220B06A4871B9F303
:10280000DE41BE847DD4DA1AEBE4DD6D51B5D4F43B
:10281000C785D38356986C13C0A86B647AF962FDA0
:10282000ECC9658A4F5C0114D96C0663633D0FFAED
:10283000F50D088DC8206E3B5E10694CE44160D5F3
:10284000727167A2D1E4033C47D4044BFD850DD2DD
:102850006BB50AA5FAA8B5356C98B242D6C9BBDBF0
:1028600040F9BCACE36CD832755CDF45CF0DD6DCEB
:10287000593DD1ABAC30D9263A00DE518051D7C892
:102880001661D0BFB5F4B42123C4B3569995BACF1D
:102890000FA5BDB89EB802280888055FB2D90CC63E
:1028A00024E90BB1877C6F2F114C6858AB1D61C1B7
:1028B0003D2D66B69041DC760671DB01BC20D298D6
:1028C0002A10D5EF8985B1711FB5B606A5E4BF9F63
:1028D00033D4B8E8A2C9077834F9000F8EA8099656
:1028E00018980EE1BB0D6A7F2D3D6D08976C6491C1
:1028F000015C63E6F4516B6B62616C1CD8306585DA
:102900004E0062F2ED95066C7BA5011BC1F40882B6
:1029100057C40FF5C6D9B06550E9B712EAB8BE8BF7
:102920007C88B9FCDF1DDD62492DDA15F37CD38C80
:10293000654CD4FB5861B24DCE51B53A7400BCA37E
:10294000E230BBD441A5DF4AD795D83D6DC4D1A4B0
:10295000FBF4D6D36AE96943FCD96E34468867AD87
:10296000D0B860DA732D0444E51D03335F4C0AAA26
:10297000C97C0DDD3C710550AA41022710100BBE29
:1029800086200CC925B56857B3856F2009D466B970
:102990009FE461CE0EF9DE5E98C9D9292298D0B0A5
:1029A000B4A8D7C7173DB359810DB42E3B5CBDB752
:1029B000AD6CBAC02083B8EDB6B3BF9A0CE2B603D3
:1029C0009AD2B1743947D5EAAF77D29D1526DB0488
:1029D0008316DC73120B63E3843B64943E6A6D0DD3
:1029E000A85A6A7A0BCF0EE49DFF099327AE000A1E
:1029F000B19E077D44930FF0D2A3088768F2011EB1
:102A0000FEC206695D5762F7CB67658071366C1947
:102A1000E7066B6E761BD4FEE02BD3895A7ADA1068
:102A2000CC4ADD676FDFB9F9F9EFBE8E43BEB71749
:102A3000D58EB060E8A3D6D67E93D1A1C4C2D838D3
:102A400052F2DF4FF167BBD16757BCA6DD06B53F39
:102A50004B36B248DA2B0DD84C1B0AAFF64A033678
:102A6000607A0441C3EF60DF55DF67A8EF8E6E31F7
:102A700079BE69468CB361CB1A8366BCA0D26F2540
:102A800036E2685295770CCC03470BBBB91602228D
:102A90002F260555BE3BBAC5280BBDB2925AB42BA2
:102AA000046AB35CA7FFD7C231CFD0B58B9ED92CB7
:102AB0001DAEDE5BB0C2649B26F263EC9CA36A751C
:102AC0000A936D02A906099C3F360EEB85670772D3
:102AD00013570005824ABF95147AB8E2AE2BB17B3A
:102AE000381BB60C9B8ED2920DBED5E5B7EFDC7CC1
:102AF00021DFDB0BD4D2D38642E2D4F1F8B3DD6818
:102B00006E83DA1FCD16BE815B26B9F6E177B06F12
:102B10007747B718E65A0888706A0FFFCA3B0666FF
:102B20005C0B0111FF9E658F69AE62F8D3FF6B618C
:102B300045CF6C1678E20AA0EED20DD75483044E2E
:102B4000C2B30339612667A7F71660D04D476949BC
:102B5000DB776E3E4A6AD1AEDC5AD6D9660BDF40CF
:102B6000F03BD83753AEBCA9C59EBBDE7FCFB24782
:102B7000E9FFB5301CF2BDBD8AC2BACA3093B35367
:102B8000A6A3B4240536D0BA9306D7CD2957DE5470
:102B9000BF67D9232E7A66B3B84A61C4021B685D49
:102BA000942B6F2A37BE0BB4A18E0CC31BDF055AC2
:102BB0008DEF022D637C777BF26B6FC53001672B45
:102BC000FED7AB76CA82C97DFA5947F0ADD4A2AF21
:102BD0009CA472C0B7FD9326363FF7CC34A5E5F12F
:102BE00071D8311504C723C31896059A071280E2DD
:102BF000EB27B27509832C1A1B6E5AA0523BD6B331
:102C000029E32F8453D100ED20FCB15B6ACBBE39A0
:102C10004A4C58CFD0EFAAFB434D338545F9027F8C
:102C2000503C9FA851A3408F929D38F5BCB6DA2145
:102C300010FFF3D2CD0C13EC5F974417C4A77E3D71
:102C4000645D197360814FDC222A908846EEB814C7
:102C5000DE5E0BDBE0323A0A4906245CC2D3AC628A
:102C60009195E479E7C8376D8DD54EA96C56F4EA95
:102C7000657AAE08BA78252E1CA6B4C6E8DD741FA6
:102C80004BBD8B8A703EB5664803F60E613557B969
:102C900086C11D9EE1F8981169D98E949B1E87E923
:102CA000CE5528DF8CA1890DBFE6426841992D0FD2
:102CB000B054BB1652096AD53036A538BF40A39E22
:102CC00081F3D7FB7CE339829B2FFF87348E43440B
:102CD000C4DEE9CB547B9432A6C2233DEE4C950B67
:102CE00042FAC34E082EA16628D924B2765BA249C7
:102CF0006D8BD12572F8F66486689816D4A45CCCE6
:102D00005D65B6926C704850FDEDB9DA5E154657B8
:102D1000A78D9D8490D8AB008CBCD30AF7E45805EE
:102D2000B8B34506D02C1E8FCA3F0F02C1AFBD03FA
:102D300001138A6B3A9111414F67DCEA97F2CFCECB
:102D4000F0B4E67396AC7422E7AD3585E2F937E866
:102D50001C75DF6E47F11A711D29C5896FB7620EA8
:102D6000AA18BE1BFC563E4BC6D279209ADBC0FE89
:102D700078CD5AF41FDDA8338807C731B112105936
:102D80002780EC5F60517FA919B54A0D2DE57A9F28
:102D900093C99CEFA0E03B4DAE2AF5B0C8EBBB3C1D
:102DA00083539961172B047EBA77D626E1691463A1
:102DB00055210C7D00020406080A0C0E1012141690
:102DC000181A1C1E20222426282A2C2E3032343693
:102DD000383A3C3E40424446484A4C4E5052545683
:102DE000585A5C5E60626466686A6C6E7072747673
:102DF000787A7C7E80828486888A8C8E9092949663
:102E0000989A9C9EA0A2A4A6A8AAACAEB0B2B4B652
:102E1000B8BABCBEC0C2C4C6C8CACCCED0D2D4D642
:102E2000D8DADCDEE0E2E4E6E8EAECEEF0F2F4F632
:102E3000F8FAFCFE1B191F1D131117150B090F0DB6
:102E4000030107053B393F3D333137352B292F2D02
:102E5000232127255B595F5D535157554B494F4DF2
:102E6000434147457B797F7D737177756B696F6DE2
:102E7000636167659B999F9D939197958B898F8DD2
:102E800083818785BBB9BFBDB3B1B7B5ABA9AFADC2
:102E9000A3A1A7A5DBD9DFDDD3D1D7D5CBC9CFCDB2
:102EA000C3C1C7C5FBF9FFFDF3F1F7F5EBE9EFEDA2
:102EB000E3E1E7E5000306050C0F0A09181B1E1DD8
:102EC00014171211303336353C3F3A39282B2E2D4A
:102ED00024272221606366656C6F6A69787B7E7D3A
:102EE00074777271505356555C5F5A59484B4E4D2A
:102EF00044474241C0C3C6C5CCCFCAC9D8DBDEDD1A
:102F0000D4D7D2D1F0F3F6F5FCFFFAF9E8EBEEED09
:102F1000E4E7E2E1A0A3A6A5ACAFAAA9B8BBBEBDF9
:102F2000B4B7B2B1909396959C9F9A99888B8E8DE9
:102F3000848782819B989D9E9794919283808586B9
:102F40008F8C898AABA8ADAEA7A4A1A2B3B0B5B649
:102F5000BFBCB9BAFBF8FDFEF7F4F1F2E3E0E5E639
:102F6000EFECE9EACBC8CDCEC7C4C1C2D3D0D5D629
:102F7000DFDCD9DA5B585D5E575451524340454619
:102F80004F4C494A6B686D6E676461627370757609
:102F90007F7C797A3B383D3E3734313223202526F9
:102FA0002F2C292A0B080D0E0704010213101516E9
:102FB0001F1C191A0009121B242D363F48415A5371
:102FC0006C657E779099828BB4BDA6AFD8D1CAC309
:102FD000FCF5EEE73B3229201F160D04737A616879
:102FE000575E454CABA2B9B08F869D94E3EAF1F8E9
:102FF000C7CED5DC767F646D525B40493E372C25C9
:103000001A130801E6EFF4FDC2CBD0D9AEA7BCB5C8
:103010008A8398914D445F5669607B72050C171E38
:103020002128333ADDD4CFC6F9F0EBE2959C878EA8
:10303000B1B8A3AAECE5FEF7C8C1DAD3A4ADB6BF18
:103040008089929B7C756E6758514A43343D262F88
:103050001019020BD7DEC5CCF3FAE1E89F968D84F8
:10306000BBB2A9A0474E555C636A71780F061D1468
:103070002B2239309A938881BEB7ACA5D2DBC0C968
:10308000F6FFE4ED0A0318112E273C35424B505948
:10309000666F747DA1A8B3BA858C979EE9E0FBF2B8
:1030A000CDC4DFD63138232A151C070E79706B6228
:1030B0005D544F46000B161D2C273A3158534E4590
:1030C000747F6269B0BBA6AD9C978A81E8E3FEF588
:1030D000C4CFD2D97B706D66575C414A2328353EF8
:1030E0000F041912CBC0DDD6E7ECF1FA9398858E68
:1030F000BFB4A9A2F6FDE0EBDAD1CCC7AEA5B8B358
:103100008289949F464D505B6A617C771E15080347
:103110003239242F8D869B90A1AAB7BCD5DEC3C8B7
:10312000F9F2EFE43D362B20111A070C656E737827
:1031300049425F54F7FCE1EADBD0CDC6AFA4B9B297
:103140008388959E474C515A6B607D761F14090207
:103150003338252E8C879A91A0ABB6BDD4DFC2C977
:10316000F8F3EEE53C372A21101B060D646F7279E7
:1031700048435E55010A171C2D263B3059524F44D7
:10318000757E6368B1BAA7AC9D968B80E9E2FFF4C7
:10319000C5CED3D87A716C67565D404B2229343F37
:1031A0000E051813CAC1DCD7E6EDF0FB9299848FA7
:1031B000BEB5A8A3000D1A1734392E236865727F97
:1031C0005C51464BD0DDCAC7E4E9FEF3B8B5A2AF07
:1031D0008C81969BBBB6A1AC8F829598D3DEC9C477
:1031E000E7EAFDF06B66717C5F524548030E1914E7
:1031F000373A2D206D60777A5954434E05081F12D7
:10320000313C2B26BDB0A7AA8984939ED5D8CFC2C6
:10321000E1ECFBF6D6DBCCC1E2EFF8F5BEB3A4A936
:103220008A87909D060B1C11323F28256E637479A6
:103230005A57404DDAD7C0CDEEE3F4F9B2BFA8A596
:10324000868B9C910A07101D3E332429626F787586
:10325000565B4C41616C7B7655584F420904131EF6
:103260003D30272AB1BCABA685889F92D9D4C3CE66
:10327000EDE0F7FAB7BAADA0838E9994DFD2C5C856
:10328000EBE6F1FC676A7D70535E49440F02151846
:103290003B36212C0C01161B3835222F64697E73B6
:1032A000505D4A47DCD1C6CBE8E5F2FFB4B9AEA326
:1032B000808D9A97000E1C123836242A707E6C621C
:1032C0004846545AE0EEFCF2D8D6C4CA909E8C828E
:1032D000A8A6B4BADBD5C7C9E3EDFFF1ABA5B7B972
:1032E000939D8F813B352729030D1F114B4557595E
:1032F000737D6F61ADA3B1BF959B8987DDD3C1CFCE
:10330000E5EBF9F74D43515F757B69673D33212F3D
:10331000050B191776786A644E40525C06081A1439
:103320003E30222C96988A84AEA0B2BCE6E8FAF42D
:10333000DED0C2CC414F5D537977656B313F2D2391
:103340000907151BA1AFBDB39997858BD1DFCDC3FD
:10335000E9E7F5FB9A948688A2ACBEB0EAE4F6F8F9
:10336000D2DCCEC07A746668424C5E500A041618ED
:10337000323C2E20ECE2F0FED4DAC8C69C92808E5D
:10338000A4AAB8B60C02101E343A28267C72606ECD
:10339000444A585637392B250F01131D47495B55B1
:1033A0007F71636DD7D9CBC5EFE1F3FDA7A9BBB59D
:1033B0009F91838D8D01020408102040801B366C84
:1033C000D8AB4D9A00050A0F04090E03080D020739
:1033D0000C01060B000D0A0704010E0B0805020F75
:1033E0000C0906030000005000000000000000501F
:1033F000010000000000005002000000000000502A
:103400000300000000000050040000000000005015
:103410000500000000000050060000000000005001
:1034200007000000000000500800000000000050ED
:1034300009000000000000500A00000000000050D9
:103440000B000000000000500C00000000000050C5
:103450000F000000000400500000000000040050B5
:1034600001000000000400500200000000040050B1
:10347000030000000004005004000000000400509D
:103480000500000000040050060000000004005089
:103490000700000000040050080000000004005075
:1034A00009000000000400500A0000000004005061
:1034B0000B000000000400500C000000000400504D
:1034C0000D000000000400500E0000000004005039
:1034D0000F00000000080050060000000008005027
:1034E00007000000000800500D0000000008005018
:1034F0000E000000000800500F000000000C0050FB
:1035000000000000000C005001000000000C005002
:1035100002000000000C00500300000000140050E6
:103520000000000000140050010000000100000035
:103530000200000004000000060000000800000077
:103540000A0000000C000000100000002000000035
:1035500040000000800000000001000000010000A9
:103560000001000000010000000100000000000058
:1035700005020000000000000A00000000380140C1
:10358000FC02002000020000FC04002000020000F9
:103590009D1400080100000002000000040000006B
:1035A00008000000100000002000000040000000A3
:1035B0008000000001000000010000000100000088
:1035C00001000000010000000100000001000000F7
:1035D00001000000020000000400000008000000DC
:1035E000100000004000000080000000000100000A
:1035F00000020000010000000100000001000000C6
:1036000001000000020000000400000008000000AB
:103610001000000001000000020000000400000093
:1036200006000000080000000A0000000C00000076
:10363000100000002000000040000000800000009A
:103640000001000000010000000100000001000076
:103650000001000000000000000000000024F40051
:103660000080000000000000000000000024F400C2
:10367000000000000000000000000000000000004A
:10368000000000000000000000000000000000003A
:103690000100000002000000030000000400000020
:1036A00006000000070000000800000009000000FC
:1036B000D03600080000002054000000040100087B
:1036C0002437000854000020CC1800002001000816
:1036D00000000000000000000000000000000000EA
:1036E00000000000000000000000000000000000DA
:1036F0003007010000000000000000000000000092
:1037000000000000000000000000000000000000B9
:103710000024F40000000000000000000000000091
:043720000024F4008D
:10400000881D0020B5410008BD410008BF410008DF
:1040100000000000000000000000000000000000A0
:10402000000000000000000000000000C141000886
:104030000000000000000000C3410008555D0008BA
:10404000C7410008C7410008515C0008C74100088B
:10405000C7410008ED550008115600083956000800
:1040600000000000E3550008EB550008E15500088A
:104070005F480008C7410008C7410008C741000861
:10408000C7410008C7410008C7410008C7410008F0
:1040900000000000C7410008C7410008C7410008F0
:1040A000C7410008C7410008C7410008F95E000881
:1040B0000D5F0008C741000800000000000000007C
:1040C00000F002F800F04BF80CA030C808382418B3
:1040D0002D18A246671EAB4654465D46AC4201D140
:1040E00000F03DF87E460F3E0FCCB6460126334227
:1040F00000D0FB1AA246AB463343184710A000007D
:1041000030A00000103A02D378C878C1FAD852071C
:1041100001D330C830C101D504680C60704700007D
:104120000023002400250026103A01D378C1FBD8D3
:10413000520700D330C100D50B60704710B5642919
:1041400002D100F097F810BD782902D100F0C8F82C
:1041500010BD002010BD1FB51FBD10B510BD00F073
:104160004CFB1146FFF7F7FF07F0E3FF00F064FB9D
:1041700003B4FFF7F2FF03BC00F06AFB70B505461D
:104180000C46164602E00FCC0FC5103E102EFAD298
:10419000082E02D303CC03C5083E042E07D301CC5E
:1041A00001C5361F03E021782970641C6D1C761E42
:1041B000F9D270BD0748804707480047FEE7FEE791
:1041C000FEE7FEE7FEE7FEE704480549054A064B21
:1041D00070470000715D0008C1400008C80B002056
:1041E000881D0020C80D0020C80D00200FB41CB58C
:1041F0000C0007AA009001D00019401E084B7B4418
:1042000069460190069800F0C4FA002C03D0694674
:10421000002000F0D1FA1CBC08BC04B01847000014
:10422000C105000070B5044685690068C10601D566
:10423000302600E02026C00707D070BD62683046F7
:10424000A1689047206A401C20626D1EF6D570BDA3
:1042500070B5044685690078C00707D170BD6268F3
:10426000A16820209047206A401C20626D1EF6D570
:1042700070BD0000F7B5002575291068009914A6D7
:1042800011D0C046C046002802DA404211A608E01C
:10429000009909688A0701D50FA602E0490704D5ED
:1042A0000EA6012501E0C046C046009F0024243729
:1042B00004E000F08EFA30313955641C0028F8D142
:1042C0002B4632462146009800F005FAFEBD00005C
:1042D000000000002D0000002B0000002000000066
:1042E00070B504460D4621461068C046C046218878
:1042F000090502D50F4A7A4402E00E4A7A440E328A
:1043000023460021243305E006070009360F965D99
:104310005E54491C0028F7D120780023000705D5FA
:10432000702D03D0002901D002231132204600F065
:10433000D2F970BDD69D0000F3B50446002081B0CF
:1043400020622046E168884700287DD0252802D0D9
:104350006268A16883E0454F00257F442046E168FC
:1043600088472028064608DB312E06D2B8192038A7
:104370000078002801D00543F0E7A80701D5042004
:1043800085430020E0610746A0612A2E0AD030460E
:1043900001F024FE002827D0B8000019303E00901C
:1043A000866119E00298BA00121902C89161029060
:1043B0002046E1688847012F064617D1E0690028AA
:1043C0001FDA202085431CE000980A2180694843B9
:1043D00000998019303888612046E1688847064690
:1043E00001F0FCFD0028EFD1012F0AD02E2E08D1BC
:1043F0002046E16888470646202005437F1C022F9F
:10440000C3DBA069002803DA4042A0610120054314
:10441000E80701D010208543002E24D030464138D3
:10442000192803D80120C002054320362046256004
:104430003146029A1546FFF781FE00280CD001286C
:1044400007D0ED1DE80800E00DE0C0000830029044
:1044500077E72D1D029574E762683046A1689047A2
:10446000206A401C6CE7206AFEBD00009A9D000097
:1044700030B5441C03E00178401C00290DD08107B1
:10448000F9D10B4BDD0104C8D11A91432940FAD070
:10449000001B0A0603D0C01E30BD001B30BD0A043D
:1044A00001D0801E30BD0902FCD0401E30BD00008E
:1044B00001010101F8B5042A2CD3830712D00B782F
:1044C000491C0370401C521E83070BD00B78491CFB
:1044D0000370401C521E830704D00B78491C0370E4
:1044E000401C521E8B079B0F05D0C91ADF002023EA
:1044F000DE1B08C90AE0FFF741FEF8BD1D4608C9EA
:10450000FD401C46B4402C4310C0121F042AF5D2B3
:10451000F308C91A521EF0D40B78491C0370401CD2
:10452000521EEAD40B78491C0370401C012AE4D4C3
:1045300009780170F8BD01E004C0091F0429FBD20D
:104540008B0701D50280801CC90700D0027070471C
:1045500000290BD0C30702D00270401C491E02295B
:1045600004D3830702D50280801C891EE3E7002262
:10457000EEE70022DFE7002203098B422CD3030A77
:104580008B4211D300239C464EE003460B433CD4A0
:10459000002243088B4231D303098B421CD3030A08
:1045A0008B4201D394463FE0C3098B4201D3CB0138
:1045B000C01A524183098B4201D38B01C01A524168
:1045C00043098B4201D34B01C01A524103098B426C
:1045D00001D30B01C01A5241C3088B4201D3CB0057
:1045E000C01A524183088B4201D38B00C01A52413A
:1045F00043088B4201D34B00C01A5241411A00D2EA
:1046000001465241104670475DE0CA0F00D0494252
:10461000031000D34042534000229C4603098B42C2
:104620002DD3030A8B4212D3FC22890112BA030A4A
:104630008B420CD3890192118B4208D389019211CC
:104640008B4204D389013AD0921100E08909C30951
:104650008B4201D3CB01C01A524183098B4201D353
:104660008B01C01A524143098B4201D34B01C01A3E
:10467000524103098B4201D30B01C01A5241C308B6
:104680008B4201D3CB00C01A524183088B4201D325
:104690008B00C01A5241D9D243088B4201D34B0040
:1046A000C01A5241411A00D20146634652415B1082
:1046B000104601D34042002B00D549427047634663
:1046C0005B1000D3404201B50020C046C04602BD89
:1046D000704770477047FFB504460D4681B02430DF
:1046E00000902168880604D51022E069914321607A
:1046F00000E00120A84201DD471B00E000270498EC
:10470000A1697A191018081AA0612078C00602D48D
:104710002046FFF787FD002608E003986268A1683D
:10472000805D9047206A401C761C20620498864277
:10473000F3DB2078C0060AD52046FFF773FD06E0BC
:104740006268A16830209047206A401C2062384689
:104750007F1E0028F4DC07E000986268A168405DD5
:104760009047206A401C206228466D1E0028F3DC1A
:104770002046FFF76DFD2078000602D5022005B027
:10478000F0BD0120FBE7000001694A1C02610878C6
:10479000704700B58FB00291002105910549019342
:1047A00079440391114604906846FFF7C5FD0FB0A8
:1047B00000BD0000E5FFFFFF0A681070521C0A6090
:1047C00070470CC908399A4202D2531C0B60107012
:1047D000704701468008081A02091018020A1018CA
:1047E000020C1018C008820012185200891A01E049
:1047F000401C0A390A29FBD27047754600F024F89C
:10480000AE46050069465346C008C000854618B04C
:1048100020B5FFF7D9FC60BC00274908B646002642
:10482000C0C5C0C5C0C5C0C5C0C5C0C5C0C5C0C560
:10483000403D49008D46704710B50446C046C0460D
:104840002046FFF795FC10BD00487047680B00201C
:1048500001491820ABBEFEE72600020070477047F2
:1048600010B5022001F08CFB0021022001F094FB26
:10487000092001F085FB0221092001F08DFB1B209E
:1048800001F07EFB03211B2001F086FB052001F0D7
:1048900077FB0321052001F07FFB062001F070FB70
:1048A0000321062001F078FB072001F069FB0321BA
:1048B000072001F071FB10BD08B54A690092032280
:1048C000036B00F007FA08BD08B54A69009203229D
:1048D000436B00F09DF908BD08B5826A0092022280
:1048E0004B6900F0F7F908BD08B5C26A00920222D0
:1048F0004B6900F08DF908BD08B5026A00920122EB
:104900000B6900F0E7F908BD08B5426A0092012280
:104910000B6900F07DF908BD00B5012101F083FEAF
:10492000002801D0012000BD06480188642901D378
:10493000012000BD4088142801D3012000BD0020C3
:1049400000BD0000D400002005480188002904D1E2
:104950004088142801D201207047002070470000D1
:10496000D400002010B5024B082200F07BF910BDE6
:1049700051D3000810B5024B082200F01BF910BDFE
:10498000B1C2000810B5024B0A2200F06BF910BD4D
:104990007BD3000810B5024B0A2200F00BF910BDC2
:1049A000DBC2000808B520228A5E0092024B0B226F
:1049B00000F090F908BD0000D80E000008B52022D4
:1049C0008A5E0092024B0B2200F022F908BD000023
:1049D000A60E000008B57D22120100922023CB5EB6
:1049E0000F2200F077F908BD08B5044A0092202391
:1049F000CB5E0F2200F00CF908BD00003408000067
:104A000008B522228A5E0092024B0C2200F062F965
:104A100008BD0000D80E000008B522228A5E009270
:104A2000024B0C2200F0F4F808BD0000A60E0000B6
:104A300008B57D22120100922223CB5E102200F0E5
:104A400049F908BD08B5044A00922223CB5E102222
:104A500000F0DEF808BD00003408000008B524228C
:104A60008A5E0092024B0D2200F034F908BD00006E
:104A7000D80E000008B524228A5E0092024B0D2257
:104A800000F0C6F808BD0000A60E000008B57D22A3
:104A9000120100922423CB5E112200F01BF908BD05
:104AA00008B5044A00922423CB5E112200F0B0F82E
:104AB00008BD00003408000008B526228A5E009276
:104AC000024B0E2200F006F908BD0000D80E0000CF
:104AD00008B526228A5E0092024B0E2200F098F85A
:104AE00008BD0000A60E000008B57D22120100924C
:104AF0002623CB5E122200F0EDF808BD08B5044A6B
:104B000000922623CB5E122200F082F808BD00003E
:104B10003408000010B5024B072200F0A3F810BDC6
:104B2000A5D3000810B5024B072200F043F810BDD2
:104B300005C3000810B5024B052200F093F810BD24
:104B4000CFD3000810B5024B052200F033F810BD9A
:104B50002FC3000810B5024B092200F083F810BDE6
:104B6000F9D3000810B5024B092200F023F810BD5C
:104B700059C3000810B5024B062200F073F810BDAF
:104B800023D4000810B5024B062200F013F810BD24
:104B900083C3000808B5CA6800920422836800F045
:104BA00099F808BD08B5CA6800920422C36800F0ED
:104BB0002FF808BDF8B507460E461448D40025184E
:104BC000314638469847E4195034002818D02868F0
:104BD000002802D1A888002810D0204602F01FF833
:104BE000002804D02046314601F0F8FFF8BD2046E9
:104BF0002A46314602F01BF80020F8BD0120F8BD1E
:104C0000204602F026F80020F8BD0000F4DE00087F
:104C100070B50E460499124CD20015191418503470
:104C20008B4218DD2868002802D1A888002810D0FF
:104C3000204601F0F4FF002804D02046314601F060
:104C4000CDFF70BD20462A46314601F0F0FF00201E
:104C500070BD012070BD204601F0FBFF002070BD3B
:104C6000F4DE0008F8B507460E4614461849E00081
:104C700045180121A140384601F0D5FC002801D09B
:104C80000120F8BD314638469847E100CC19503430
:104C9000002818D02868002802D1A888002810D041
:104CA000204601F0BCFF002804D02046314601F028
:104CB00095FFF8BD20462A46314601F0B8FF002096
:104CC000F8BD0120F8BD204601F0C3FF0020F8BD6B
:104CD0005CDE0008F8B5069F04460E461749D00072
:104CE000451801219140204601F09DFC002801D08B
:104CF0000120F8BDD00004195034BB4218DC2868EC
:104D0000002802D1A888002810D0204601F087FF93
:104D1000002804D02046314601F060FFF8BD20464F
:104D20002A46314601F083FF0020F8BD0120F8BD7E
:104D3000204601F08EFF0020F8BD00005CDE000878
:104D40000EB504206946087003480190034802909C
:104D5000684604F025F80EBDD7BB0008E1BB00088B
:104D600010B5024808F0B0FB10BD00005C01002047
:104D7000F8B514460427FD25FB22F726030001F0B1
:104D8000F1F8190E131A1D202F3344658A9FC7D8D6
:104D9000DEE3F2F7FCEEEDECEBEAE9E8EB00C2480B
:104DA000007D20700120F8BD01202070002161707D
:104DB000A0700320F8BD27700120F8BD27700120E6
:104DC000F8BD0025B94801F07DFE0C2802D00D2861
:104DD00003D101E0012500E0022525700120F8BD86
:104DE000032020700120F8BD09780020002904D09C
:104DF000012904D0022905D103E0032002E00320A9
:104E000000E0022020700120F8BD0A7848780021D7
:104E10000223002A04D0012A0AD0022A13D10FE06B
:104E2000032801D2181AC0B2A149800009580AE02B
:104E3000032801D2181AC0B29E498000095802E026
:104E40009D498000095821600420F8BD0A784878FF
:104E50000021002A06D0012A0AD0022A0ED0032AF5
:104E600016D111E0032813D29449800009580FE0AD
:104E700003280DD292498000095809E0042807D27E
:104E800090498000095803E0002801D18E4801684C
:104E900021600420F8BD0A7849780020002A04D057
:104EA000012A05D0022A08D105E08848405C04E0C8
:104EB0008748405C01E08748405C20700120F8BDD5
:104EC0000A7848780021130001F04CF805040A1014
:104ED000161B1F00032818D27F498000095814E0D0
:104EE000032812D27D49800009580EE004280CD214
:104EF0007B498000095808E0002806D179480168FC
:104F000003E0002801D17848016821600420F8BD41
:104F100009780020002904D0012904D0022905D1F4
:104F200003E0142002E0142000E01420206004209C
:104F3000F8BD087804F02EFC20800220F8BD04F0B3
:104F400025FC20800220F8BD04F01CFC20800220FB
:104F5000F8BD84E05EE024E0A4E01DE017E011E08D
:104F60000BE005E0FFE703F065FD20600420EFE7BC
:104F700003F0A4FD20600420EAE704F03EFC20607A
:104F80000420E5E704F035FC20600420E0E704F0AD
:104F900038FC20600420DBE704F021FC20600420C2
:104FA000D6E75248016809690079C140C807C00FB7
:104FB0004F490B681B6909792840CB40D907890FF5
:104FC00001434C4803681B6900791140C340D8076E
:104FD000400F084348490A68126909793040CA40BD
:104FE000D107090F01434548026812690079C240A0
:104FF000D007EF22C00E1140084341490A681269E8
:105000000979CA40D107DF22890E1040014321707F
:1050100001209DE73B48016809690079C140C90743
:10502000C90F394803681B6900792940C340D80774
:10503000800F084335490B681B6909791040CB4044
:10504000D907490F0143324802681269007931409B
:10505000C240D007000F08432070012078E70027E6
:1050600000262C4806F094FB002805DB294806F0B2
:105070008FFBC607F60F00E00127264806F08BFBE2
:10508000002807DB234806F086FBC007800F2E4070
:10509000064300E00127002F01D080200643267040
:1050A000012055E7002053E7480300208801002035
:1050B00030DC00083CDC000848DC0008340000203C
:1050C0004000002068000020540000202C00002038
:1050D0002F00002032000020340100204001002079
:1050E0004C010020580000206400002000DC000873
:1050F00008DC000810DC000818DC000848DB0008A9
:10510000F0DB0008C0DB0008C8DB0008D0DB0008CB
:1051100028DB000854040020F8B5154601241628A1
:105120007ED018DC042829D00022082865D0092860
:1051300077D00A2821D129460E784C780092042293
:10514000891C684607F072F8330000F00BFF059EDB
:10515000A5ACB3B91600172874D0182873D0192835
:105160000BD128786978002835D0012839D0022859
:105170003DD00021012002F08DFBF8BD2C78C04805
:1051800001F0A0FC002C0ED0012C19D0022CF4D17F
:105190000D28F2D00D21BA4801F01CFD002101209C
:1051A00002F078FBF8BD0C2801D00D28FAD10021BF
:1051B000012002F06FFB0221B14801F00BFDF8BDA8
:1051C0000C28FCD00C21AE4801F004FD0021012088
:1051D00002F060FBF8BD0329FCD2022002F05AFB6A
:1051E000F8BD0329FCD2032002F054FBF8BD0229CC
:1051F000FCD2042002F04EFBF8BD29460E784C7814
:1052000000920422891C684607F010F8002E0BD08B
:10521000012E10D0022E17D0032EEDD1002C01E06C
:1052200056E01EE017D019E0032C17D2954AA100D2
:105230000098505012E0032C10D2934AA10000981D
:1052400050500BE0BAE009E1042C07D28F4AA100CC
:105250000098505002E08E490098086003F082FFE9
:10526000F8BD2A786878A978002A08D0012A09D0E0
:10527000022AF5D1874A115403F074FFF8BD864A1B
:105280001154F9E7854A1154F6E7032C1DD2844ADC
:10529000A1000098505018E0032C16D2814AA100BA
:1052A0000098505011E0042C0FD27F4AA1000098C2
:1052B00050500AE0002C08D17C490098086004E0B6
:1052C000002C02D17A490098086003F04BFFF8BD2A
:1052D0006B4801F0F7FB0D28F9D12878754AC10712
:1052E00007D011688B6915792246AA4013438B6158
:1052F00006E011688B6A15792246AA4013438B6237
:1053000041086D4AC90707D011688B691579224693
:10531000AA4013438B6106E011688B6A1579224617
:10532000AA4013438B628108644AC90707D01168F9
:105330008B6915792246AA4013438B6106E01168F8
:105340008B6A15792246AA4013438B62C1085C4AD6
:10535000C90707D011688B6915792246AA40134303
:105360008B6106E011688B6A15792246AA401343C7
:105370008B620109534AC90707D011688B691579F7
:105380002246AA4013438B6106E011688B6A1579A7
:105390002246AA4013438B6240094B49C00706D0FE
:1053A0000868826909798C4022438261F8BD0868E7
:1053B000826A09798C4022438262F8BD304801F04C
:1053C00081FB0D28F9D12878404AC10707D0116820
:1053D0008B6915792246AA4013438B6106E0116858
:1053E0008B6A15792246AA4013438B624108384ADA
:1053F000C90707D011688B6915792246AA40134363
:105400008B6106E011688B6A15792246AA40134326
:105410008B6281082F4AC90707D011688B691579FB
:105420002246AA4013438B6106E011688B6A157906
:105430002246AA4013438B62C0082749C00706D002
:105440000868826909798C4022438261F8BD086846
:10545000826A09798C4022438262F8BD084801F0D3
:1054600031FB0D28F9D12C781C48E107C90F05F054
:10547000A1FDA007C10F194805F0AAFEF8BD000064
:105480008801002034000020400000206800002037
:1054900054000020320000202C0000202F000020AB
:1054A00034010020400100204C0100205800002061
:1054B0006400002000DC000808DC000810DC0008A4
:1054C00018DC000848DB0008F0DB0008C0DB00083F
:1054D000C8DB0008D0DB000828DB000854040020EB
:1054E00010B5024805F066FC10BD000078000020F1
:1054F00038B5044601226946054805F0C1FC00287C
:1055000004D0684600782070012038BD002038BDE6
:105510007800002070B505460C46074805F06BFC86
:10552000A04206D322462946034805F0CFFC0120BD
:1055300070BD002070BD00007800002010B5264925
:10554000086801221043086023484038C36B0404F4
:105550002343C363436B13434363436B02242343DB
:105560004363436B042423434363436B0824234373
:105570004363436B2024234343630B689403234317
:105580000B600B68140523430B60836B1343836329
:10559000C26B03151A43C263C26BDB021A43C263B8
:1055A00008689A111043086000200C4900BF401C95
:1055B0008842FBD3012007F0DFFC002007F08EFCBF
:1055C00007F072FC07F0AAFC07F09EFC07F078FCDD
:1055D00000F0C4FB10BD00004010024040420F002C
:1055E000704710B502F0AAFF10BD70470648016968
:1055F000C90708D00121016104480178642902D259
:105600000178491C0170704700180240D00000204A
:10561000074801698908C90708D0042101610548C4
:105620000178642902D20178491C0170704700009A
:1056300000180240D0000020144908694009C20740
:10564000134807D020220A610278642A02D2027825
:10565000521C02700A69520BD20708D00122520371
:105660000A610278642A02D20278521C02700A6926
:10567000920AD20708D0012292020A6101786429B5
:1056800002D20178491C01707047000000180240E6
:10569000D000002010B511490868826A0C790121F8
:1056A0000B46A3401A4382620D4A1068836A14793C
:1056B0000A46A240134383620A4A1068836A127939
:1056C00091400B438362054805F026FB044805F032
:1056D00023FB044805F020FB10BD000020DC00087F
:1056E000A0DB0008E0DB000830B5FE48426B01217A
:1056F0000A434263426B02231A434263426B042310
:105700001A434263426B08231A434263426B2023CD
:105710001A434263F4480268146800794500032084
:105720000346AB409C431460F04C2268956A247990
:105730000B46A3401D439562156864000346A340D1
:105740009D430B46A3401D431560E94A1268956AC4
:10575000E74B1C790B46A3401D4395621568640016
:105760000346A3409D430B46A3401D431560E14AF9
:1057700012681468DF4B1B795D000346AB409C4305
:105780001460DD4A12681468DB4B1B795D00034628
:10579000AB409C431460D94A1468256812795300C1
:1057A00002469A40954315432560D54A126814680D
:1057B000D34B1B795D000346AB409C431460D14A38
:1057C000146825681279530002469A4095431543A0
:1057D0002560CD4A12681468CB4B1B795D000346E7
:1057E000AB409C431460C94A146825681279530081
:1057F00002469A40954315432560C54A14682568BA
:105800001279530002469A40954315432560C14CD6
:105810002268156823795C000346A3409D43156008
:10582000BD4C2268156823795C000346A3409D4364
:105830001560BA4A1268956AB84B1C790B46A340AA
:105840001D439562156864000346A3409D430B46C3
:10585000A3401D431560B24C2268956A24790B461B
:10586000A3401D439562156864000346A3409D4311
:105870000B46A3401D431560AA4C2268956A247903
:105880000B46A3401D439562156864000346A34080
:105890009D430B46A3401D431560A34C2268956AA7
:1058A00024790B46A3401D439562156864000346A6
:1058B000A3409D430B46A3401D4315609B4C2268AB
:1058C000956A24790B46A3401D43956215686400D0
:1058D0000346A3409D430B46A3401D431560944CD3
:1058E0002268956A24790B46A3401D43956215688A
:1058F00064000346A3409D430B46A3401D4315602F
:105900008C4C2268956A24790B46A3401D4395620E
:10591000156864000346A3409D430B46A3401D4306
:105920001560854C2268956A24790B46A3401D4377
:10593000956215686400A0408543A1400D43156041
:105940007E480268946A0179012003468B401C431B
:10595000946215684B0003210C469C40A5432543E7
:105960001560774D2A68946A2D790346AB401C4335
:10597000946214686D000B46AB409C430346AB40F9
:105980001C4314606F4A14682568127953000A4654
:105990009A409543154325606B4A126814686A4B18
:1059A0001B795D000B46AB409C431460674A12684C
:1059B000956A664B1C790346A3401D4395621568A2
:1059C00064000B46A3409D430346A3401D4315605E
:1059D0005F4A126814685E4B1B795D000B46AB4052
:1059E0009C4314605B4C2268956A24790346A3406B
:1059F0001D439562156864000B46A3409D43034612
:105A0000A3401D431560544C2268956A24790346CF
:105A1000A3401D439562156864000B46A3409D4357
:105A20000346A3401D4315604C4C2268956A2479B7
:105A30000346A3401D439562156864000B46A340CE
:105A40009D430346A3401D431560454C2268956A5B
:105A500024790346A3401D439562156864000B46F4
:105A6000A3409D430346A3401D4315603D4A126871
:105A7000956A3C4B1C790346A3401D43956215680B
:105A800064000B46A3409D431560374A1268956A2F
:105A9000354B1C790346A3401D439562156864008D
:105AA0000B46A3409D431560304C2268956A2479CB
:105AB0000346A3401D439562156864000B46A3404E
:105AC0009D4315602A4C2268956A24790346A340B9
:105AD0001D439562156864000B46A3409D43156005
:105AE000244C49E000100240E8DB0008F0DB00082D
:105AF00020DC000828DC0008E8DA0008F0DA0008FA
:105B0000F8DA000800DB000818DB000808DB0008F2
:105B100020DB000858DB000860DB000868DB0008B9
:105B2000A8DB0008B0DB0008B8DB0008C0DB000819
:105B3000C8DB0008D0DB000828DB000830DB0008E9
:105B4000E0DB000838DB000840DB000848DB000829
:105B500050DB000800DC000808DC000810DC00084E
:105B600018DC000870DB000878DB000880DB000828
:105B700088DB000890DB00082268956A24790346D8
:105B8000A3401D439562156864000B46A3409D43E6
:105B90001560264C2268956A24790346A3401D436C
:105BA0009562156863000C469C40A543254315602B
:105BB0001F4C2268956A24790346A3401D439562D1
:105BC000156864000B46A3409D430346A3401D4354
:105BD0001560184C2268956A24790346A3401D433A
:105BE0009562156863000C469C40A54325431560EB
:105BF000114C2268956A24790346A3401D4395629F
:105C0000156863000C469C40A543254315600B4C6A
:105C10002268956A2479A040054395621068630064
:105C2000994088430843106030BD000098DB0008AD
:105C3000A0DB0008F8DB000810DB0008D8DB000858
:105C400010B5024803F0E2FD10BD0000881300000B
:105C500010B504F0FDFF10BD10B503F07FFD10BDC1
:105C6000F0B587B0E12040020590022069468876B1
:105C7000002048760876324801904B20C000088109
:105C800030480390FF200130088201A92E4805F01A
:105C9000BEF82E480068C3682C4903240A792546BB
:105CA00051008D40AB4301252E468E403343C360E7
:105CB00027490B68DE689C460B7927465B009F40AE
:105CC000BE432F469F403E436346DE601307DB0F13
:105CD0009F002037C3595207D20E0F269640B34378
:105CE0002E4696403343C35108790F680207D20FFE
:105CF00092002032BB584007C00E0F268640B343A7
:105D000085402B43BB501148006803680F4A254665
:105D1000127952009540AB43022595402B43036016
:105D2000086802680979022349008C40A2438B402D
:105D30001A4302600121044805F050F807B0F0BD95
:105D4000140600206C0800207800002030DB0008DA
:105D500038DB000810B507F021FE10BD10B507F0C4
:105D600047FC07F08DFC07F019FC07F02DFC10BD77
:105D700002490148886070470040000800ED00E0DB
:105D8000F8B572B6FFF7B0FC00204C4900BF401CCC
:105D90008842FBD3FFF7D2FBFEF762FD00F0B8F8B4
:105DA00062B6FFF777FCFFF75BFF45A264214B4823
:105DB000FEF71CFA4948FEF75BFBC1B2474803F007
:105DC0008FFD07F0E5F9FEF7BBFF07F0E5F907F0F7
:105DD00001FAFFF741FFFFF733FF07F063F907F020
:105DE0002BF97D20800105F0A7F83D4D28688169D9
:105DF0002B79012422469A4011438161394E306843
:105E00008169337922469A4011438161364800689E
:105E10008169354A137922469A401143816133489A
:105E200000688169314A137922469A4011438161A1
:105E30002F4F386881693A7923469340194381612D
:105E40002C48006881692B4A2346127993401943F4
:105E500081617D20C00007F0BFFD2868816A2B7931
:105E600022469A40114381623068816A3379224622
:105E70009A40114381621C480068816A1A4A13796A
:105E800022469A401143816218480068816A174A85
:105E9000137922469A40114381623868816A3B79BE
:105EA00022469A401143816212480068816A114A71
:105EB0001279944021438162F8BD000040420F00F6
:105EC0000D0A3D3D3D3D3D3D205374617274203DC2
:105ED0003D3D3D3D0D0A0D0A000000006C0900200B
:105EE00000DC000808DC000810DC000818DC0008F2
:105EF00048DB0008F0DB000810B5034804F020FF81
:105F0000014804F031FF10BD780000207047000008
:105F100010B588B010480690012469468C8306A805
:105F200004F040FE18216846FEF723FB7D20C000E8
:105F30006946888004F020FE0090029405200390BA
:105F40000648049006480590684607F0DDFC0120ED
:105F500004F0F6FD08B010BD9DD90008399E000878
:105F6000ADAF000830B47446641E2578641CAB42A3
:105F700000D21D46635D5B00E31830BC184700008B
:105F8000002805DBC106C90E0120884001490860D0
:105F90007047000000E100E08307FF22DB0E9A401B
:105FA0008907090E9940002808DB830809489B00EF
:105FB0001818036893430B43036070470007000FF2
:105FC0000838830804489B001818C36993430B439F
:105FD000C361704700E400E000ED00E030380A28BB
:105FE00001D2012070470020704770B505462C464D
:105FF000FF3481340022636B032128469847002236
:10600000636B0421284698470022636B02212846CF
:10601000984770BD70B505462C46FF348134002288
:10602000636B0421284698470022636B03212846AE
:1060300098470022636B02212846984770BD0000F4
:1060400070B5002401250300FFF78CFF0D1019081F
:10605000647D9C9F22364A5E8187A200002901D080
:10606000012000E0002002F053FE92E0002900D061
:106070000121494804F09EFF6840044689E0002958
:1060800000D00121444805F0A3F86840044680E0B0
:10609000002901D0012200E00022404B01211879A3
:1060A00081401868002A03D082690A43826170E047
:1060B000826A0A4382626CE0002901D0012200E07A
:1060C0000022374B0121187981401868002A03D03B
:1060D00082690A4382615CE0826A0A43826258E014
:1060E000002901D0012200E000222E4B0121187965
:1060F00081401868002A03D082690A43826148E01F
:10610000826A0A43826244E0234805F09BF86840B3
:1061100004463EE0002901D0012000E000200028D4
:1061200007D003F025FB002833D1012003F0F6FA55
:106130002FE003F01DFB00282BD003F077FB00209D
:1061400003F0ECFA25E0C8B203F004FB21E01648A6
:1061500000F0EFF803F0B6FB1BE0144800F0B2FCCF
:10616000012807D0124803F083FA01210F4800F0FC
:1061700031FD0EE00E4803F06DFA02210B4800F0ED
:1061800029FD06E005F0FCFF03E006F04DF800E015
:1061900001242046684070BD5404002020DC000823
:1061A000A0DB0008E0DB0008480300208801002095
:1061B000AC04002070B50622825E0468002907DB6B
:1061C0000423C35E50181946FEF7DFF9605C70BD0A
:1061D0000825455F521951180AB2002A06DB04212E
:1061E000415E1046FEF7D1F9605C70BD2946504211
:1061F000FEF7CBF908B2281A205C70BD002101819E
:106200007047F8B507460D461646002407E0295D9D
:10621000384600F019F8002803D0641C24B2B442B8
:10622000F5DB2046F8BD016082800021C18001813C
:1062300070470089002801D0002070470120704776
:106240000821415E0846704770B504460D46082097
:106250000421205E615E88420BDA0622A25E1018DD
:10626000FEF793F9206845542089401C20810120C5
:1062700070BD002070BD70B504460821615E002924
:106280000DD00620205E2268155C491E2181042164
:10629000615E401CFEF779F9E180284670BD002060
:1062A00070BD70B505460C460820285EA04200DA95
:1062B0000446001B28810620285E0421695E00191F
:1062C000FEF763F9E980204670BD81880089081ACD
:1062D00000B2704708B50A88FF3A2E3A1AD0012A50
:1062E0001BD0092A18D10E48009004F057F9042257
:1062F00069460C4804F07EF904F05CF9642007F06C
:106300006BFBBFF34F8F09490748C860BFF34F8F3E
:1063100000BFFDE700F0A1FC08BD00F05FFE08BD76
:10632000DDCC3412FCFF00080400FA0500ED00E0AB
:10633000704780680047000070B5044608782075F3
:106340004868206088686060C868A0600869E0608C
:1063500048692061002020761C4D20461C302946CB
:10636000064607F0DDF9304607F0EDF920464430E7
:106370002946064607F0D4F9304607F0E4F92046EE
:106380006C30C821064607F0A7F9304607F0DBF964
:1063900020469430C821064607F09EF9304607F0A3
:1063A000D2F920467D21BC30C900064607F094F999
